:020000040800F2
:1000000048D80020DD0300081D95000899800008ED
:1000100009940008B32A000819C60008000000006F
:100020000000000000000000000000001D030008A8
:10003000633E00080000000079030008D5B70008FF
:10004000F7030008F7030008F7030008F7030008A8
:10005000F7030008F7030008653E0008F7030008EF
:10006000F70300086B3E0008713E0008F703000824
:10007000F7030008F7030008F7030008F703000878
:10008000F7030008F7030008F7030008F703000868
:10009000B52A0008F7030008F7030008773E0008B8
:1000A000F7030008F7030008F7030008F703000848
:1000B000F7030008F7030008F7030008F703000838
:1000C000F7030008F7030008F7030008F703000828
:1000D000F703000879C40008F703000885C4000886
:1000E000F7030008F7030008F7030008F703000808
:1000F000F7030008F7030008F70300086938000851
:10010000F7030008F7030008F7030008F7030008E7
:10011000F7030008F7030008F7030008F7030008D7
:10012000F7030008C1380008CD380008F7030008BD
:10013000F7030008F7030008F7030008F7030008B7
:10014000C12A0008F7030008F7030008F7030008B6
:10015000F7030008993D0008A53D000855C50008B3
:10016000F7030008F7030008F7030008F703000887
:10017000F7030008F7030008F70300080000000079
:10018000F7030008F703000800F002F800F0B6F8E3
:100190000AA090E8000C82448344AAF10107DA45E2
:1001A00001D100F0ABF8AFF2090EBAE80F0013F07E
:1001B000010F18BFFB1A43F0010318476C790100C7
:1001C0008C79010010F8013B0A4413F0030408BFC6
:1001D00010F8014B1D1108BF10F8015B641E05D01B
:1001E00010F8016B641E01F8016BF9D1002D15D0D8
:1001F00010F8014B03F00C030C2BA1EB04040ABF15
:1002000010F8013BA4EB8314A4EB032405F10103D4
:1002100014F8016B5B1E01F8016BF9D5914238BFF0
:1002200010F8013BD1D3704700230024002500269D
:10023000103A28BF78C1FBD8520728BF30C148BF49
:100240000B6070476E2900F0A183702900F0E384F1
:10025000662915F0BF85652915F0BC85672915F05D
:10026000B985612915F0B88503681B0A28BF41F0DC
:100270008001692900F04E83642900F04B837529C1
:1002800000F048836F2900F07084782900F0AF8473
:10029000E92900F00B84E42900F00884F52900F036
:1002A0000584EF2900F06D84F82900F0AE8403681E
:1002B000DB0928BF41F08001632901F0D181732956
:1002C00001F0D681E32901F0E181F32901F0E68113
:1002D000002070471FB515F0C5FC01F031FA04008D
:1002E0000020002114F084F8401C606000200021F0
:1002F00014F068F8E0601FBD10B510BD01F0F3F90F
:100300001146FFF7E7FF11F06EF801F0CFFA03B4E2
:10031000FFF7F2FF03BC01F0DFFA00002C4B196875
:100320000868B0E8F04F80F30988BFF36F8F4FF093
:10033000000080F311887047000000000848006842
:10034000006880F308884FF0000080F3148862B6DC
:1003500061B6BFF34F8FBFF36F8F00DF00BF00BFE9
:1003600008ED00E0DFF80C00016841F47001016065
:10037000704700BF88ED00E0EFF30980BFF36F8F97
:10038000134B1A681EF0100F08BF20ED108A20E9E9
:10039000F04F106009B44FF0500080F31188BFF3A4
:1003A0004F8FBFF36F8F13F0F5F94FF0000080F31C
:1003B000118809BC19680868B0E8F04F1EF0100FEA
:1003C00008BFB0EC108A80F30988BFF36F8F7047C5
:1003D00010070020EFF305807047000009488047B0
:1003E00009480047FEE7FEE7FEE7FEE7FEE7FEE717
:1003F000FEE7FEE7FEE7FEE704480549054A064B2F
:10040000704700009DB80008890100084898002046
:1004100048D8002048B8002048B800209FED1A1A9C
:10042000F5EE000A40EE010ABDEEE00AF5EEC00A64
:1004300010EE100AF1EE10FA38BF401E00EE100A5E
:100440001349F7EE001AB8EEC00A30EEC00ADFED2D
:100450000F0A20EE200AFCEEC00A10EE900AC0F34C
:10046000080000EE900A01EB8000F8EE600A90EDC3
:10047000011A70EE600A90ED000A71EEE01A21EEAA
:10048000800A00EE810A704783F9223E0000004492
:10049000CC6F0108DFED190AB5EEC00A60EE200A44
:1004A000BDEEE01A11EE100AF1EE10FA38BF401E50
:1004B00000EE100A1349F7EE001AB8EEC00A30EE4B
:1004C000C00ADFED0F0A60EE200ABCEEE00A10EE73
:1004D000100AC0F3080000EE100A01EB8000B8EE2D
:1004E000400A90ED011A70EEC00A90ED000A71EE1C
:1004F000E01A21EE800A00EE810A704783F9223E5D
:1005000000000044CC6F010853EA020C00F069803F
:100510002DE9F04B4FF00006002B1FBFB3FA83F517
:1005200003FA05F424FA05F65E4012BF1643B2FA48
:1005300082F502FA05F4C5F120051EBF22FA05FC7A
:1005400044EA0C04203556EA044C4FEA144418BF20
:10055000641C4FF000084FF00009904271EB030C4F
:1005600039D3002919BFB1FA81F701FA07F6B0FAB9
:1005700080F700FA07F6C7F120071EBF20FA07FC34
:1005800046EA0C062037B6FBF4FCA7EB0507103F44
:1005900007F01F0BCBF120060CFA0BFB2CFA06F62A
:1005A00044BFB3460026202FA4BF5E464FF0000B89
:1005B0005BEA060C08BF4FF0010B19EB0B09ABFB14
:1005C000027C48EB0608C01B06FB02CC0BFB03CCED
:1005D00071EB0C01C1E70B46024641464846BDE8B7
:1005E000F08B13B54FF000004FF00001AFF3008027
:1005F000BDE81C40704700001CB50C46064B7B4410
:1006000069460090204600F0DAF904460020694669
:1006100000F0E8F920461CBDE303000040EA0103B6
:10062000024630B59B0710D14FF0013400E008C2FC
:1006300008C91D1B9D4315EAC41FF8D013F0FF0124
:1006400002F8011B0DD01B0AF8E711F8013B002B43
:1006500002F8013B05D011F8013B002B02F8013BE9
:10066000F3D130BD10B5431C02E010F8011B71B18D
:100670008107FAD14FF0013202C88C1A8C4314EA78
:10068000C211F9D0C01A0A0603D0C01E10BDC01A8C
:1006900010BD0A0401D0801E10BD0902FCD0401E0E
:1006A00010BD032A40F2308010F0030C00F01580DA
:1006B00011F8013BBCF1020F624498BF11F801CB65
:1006C00000F8013B38BF11F8013BA2F1040298BFCA
:1006D00000F801CB38BF00F8013B11F0030300F034
:1006E0002580083AC0F0088051F8043B083A51F8D8
:1006F00004CBA0E80810F5E7121D5CBF51F8043BDD
:1007000040F8043BAFF30080D20724BF11F8013B4F
:1007100011F801CB48BF11F8012B24BF00F8013BB1
:1007200000F801CB48BF00F8012B704710B5203A04
:10073000C0F00B80B1E81850203AA0E81850B1E89A
:100740001850A0E81850BFF4F5AF5FEA027C24BF50
:10075000B1E81850A0E8185044BF18C918C0BDE847
:1007600010405FEA827C24BF51F8043B40F8043B10
:1007700008BF7047D20728BF31F8023B48BF11F8C5
:10078000012B28BF20F8023B48BF00F8012B70471F
:1007900002F0FF0343EA032242EA024200F002B8F9
:1007A0004FF000020429C0F0128010F0030C00F09A
:1007B0001B80CCF1040CBCF1020F18BF00F8012B18
:1007C000A8BF20F8022BA1EB0C0100F00DB85FEAE6
:1007D000C17C24BF00F8012B00F8012B48BF00F8B2
:1007E000012B70474FF0000200B513469446964621
:1007F000203922BFA0E80C50A0E80C50B1F1200134
:10080000BFF4F7AF090728BFA0E80C5048BF0CC0E1
:100810005DF804EB890028BF40F8042B08BF70473F
:1008200048BF20F8022B11F0804F18BF00F8012BB1
:10083000704770477047704710B500F0BFFA006806
:1008400010BD10B5044600F0B9FA046010BD70B5D3
:10085000044685690068C10601D5302600E02026DF
:10086000C00707D070BDD4E9012130469047206A07
:10087000401C20626D1EF6D570BD70B504468569BA
:100880000078C00707D170BDD4E90121202090472E
:10089000206A401C20626D1EF6D570BD09684A05AD
:1008A00001D540B27047C905FCD500B27047096850
:1008B0004A0501D5C0B27047C905FCD580B2704762
:1008C00070B50C460546012A05D02878800600D56B
:1008D000EA69002302E0012305E05B1C934202D297
:1008E000E05C0028F9D1A869E618C01AA861286A56
:1008F000184428622846FFF7AAFF04E0D5E9012141
:1009000014F8010B9047B442F8D32846FFF7B5FF1F
:1009100070BD00002DE9F0410646002410687529DD
:10092000314616A510D0FFF7B9FF002802DA404281
:1009300013A507E031688A0701D512A502E049072F
:1009400004D511A5012401E0FFF7B1FF00210A221F
:1009500006F1240709E0B0FBF2FCB0FBF2F302FB66
:100960001C00303078541846491C0028F3D1234627
:100970002A463046BDE8F04100F082BA000000008F
:100980002D0000002B00000020000000116802680C
:10099000006A530501D508700AE0D30501D5088027
:1009A00006E0130603D5C217C1E9000200E00860A3
:1009B0000120704701694A1C02610878704700B540
:1009C0008FB0CDE901310021059105497944CDE988
:1009D00003101146684600F029F90FB000BD000071
:1009E000E5FFFFFF0A6802F8010B0A60704700008C
:1009F0002DE9FF5F15468A460446DFF8AC80F844CF
:100A00000027D8E900103E46CDE9001010E03AF882
:100A100016106A4602A800F045FE411C07D0217856
:100A2000890603D5E269391891420DD80744761C2E
:100A30002078800602D5E069B84205DDAE42E6DBEB
:100A40003AF816000028E2D1A069C01BA061204638
:100A5000FFF7FDFED8E90010CDE90010002017E0F7
:100A60003AF818106A4602A800F01CFEB0F1FF3FE9
:100A700081460BD000250DF1080B05E0D4E90121DA
:100A80001BF8050090476D1C4D45F7D308F1010098
:100A9000B0428046E4DB206A384420622046FFF7FB
:100AA000ECFEBDE8FF9F0000CE6D01002DE9F04196
:100AB0008046D21D22F007020025D2E90002F52966
:100AC00015A614D0011E72F1000106DA0023D0EB46
:100AD000030063EB020211A608E0D8F800108B07B0
:100AE00001D50FA602E0490701D50EA60125114642
:100AF000002408F1240704E000F064F930323A558C
:100B0000641C50EA0102F7D12B463246214640468A
:100B1000BDE8F04100F0B4B9000000002D00000075
:100B20002B0000002000000030B4002100F124045C
:100B300008E002F00705D208303542EA4372DB08CC
:100B40006554491C52EA0305F3D10468002310A23E
:100B5000250707D5A40600D421B1C46901230DA23D
:100B6000641EC46130BC00F08BB910B50446214648
:100B70001068FFF79CFE02462046BDE810400023A7
:100B8000D2E7D21D22F00701D1E90023CCE7000013
:100B90000000000030000000F0B40D460188090597
:100BA00002D5214C7C4402E01F4C7C440E340021D1
:100BB00000F1240608E002F00F071209E75D42EA9F
:100BC00003721B097754491C52EA0307F3D10278D8
:100BD0000023120704D5702D06D009B10223113469
:100BE0002246F0BC00F04CB901231034F8E770B590
:100BF00004460D4621461068FFF759FE0246294675
:100C00002046BDE870400023C6E7D21D22F007034E
:100C1000D3E90023C0E70368126843F020030360B0
:100C20000823C3610023B7E7306C01002DE9F05FB2
:100C3000894604464FF0000ADFF874B1FB44C0F85F
:100C400020A02046E1688847002874D0252806D0D7
:100C5000D4E901219047206A401C2062F1E7002678
:100C60005F462046E16888472028054607DB312D8E
:100C700005D2781910F8200C08B10643F1E7B00747
:100C800001D526F00406C4F81CA00027C4F818A05B
:100C90002A2D09D028460DF047F938B304EB870810
:100CA000303DC8F8185019E059F8041B204604EBF1
:100CB00087029161E1688847012F054618D1E069F4
:100CC000002820DA26F020061DE0D8F8180000EBF6
:100CD000800005EB40003038C8F818002046E16875
:100CE000884705460DF020F90028EED1012F0AD0E3
:100CF0002E2D08D12046E16888477F1C0546022F2B
:100D000046F02006C4DBA069002803DA404246F022
:100D10000106A061F00701D026F010066C2D0BD063
:100D2000682D09D04C2D39D06A2D35D0742D35D091
:100D30007A2D33D016E038E0E1682F462046884708
:100D4000B842054609D16C2F26D04FF48060E16887
:100D5000064320468847054604E06C2F1AD04FF41E
:100D6000807006430DB3A5F14100192802D8203543
:100D700046F400664A462946204626604E46FFF75E
:100D800061FA80B101280BD0F61D26F0070000F1B2
:100D9000080956E74020E4E78020D8E70020D6E79E
:100DA00006F104094DE7284652E7206ABDE8F09FA6
:100DB000C06B010000487047E8970020004870476A
:100DC000E897002030B5B0F10A024FEA900E71F1B9
:100DD00000034EEA817EB0EB0E0061EB91014FEA19
:100DE000101E4EEA017E10EB0E0041EB11114FEA8E
:100DF000102E4EEA016E10EB0E0041EB11214FEA6E
:100E0000104E4EEA014E10EB0E0041EB114140181E
:100E100041F100014FEAD00040EA41704FEAD101B0
:100E200010EB80054FEA810444EA907444EB01041E
:100E30006D1944EB0404521BA3414FF0000348BF5B
:100E40000A3200D530BD401C41F1000130BD000028
:100E50001FB584B000200A9C06AB04AA02A9009426
:100E6000AFF3008018B1DDE9020108B010BD0348FE
:100E7000204000F029FD00200146F6E70000207C1C
:100E80002DE9F0470D4699469246044600F12408A4
:100E90000168880604D5E06921F01001216000E0B6
:100EA0000120A84201DD471B00E00027A1697A1953
:100EB00002EB0900081AA0612078C00602D420467F
:100EC000FFF7C5FC002608E0D4E901211AF8060066
:100ED0009047206A401C761C20624E45F4DB207847
:100EE000C0060AD52046FFF7B2FC06E0D4E901218E
:100EF00030209047206A401C2062381EA7F101076D
:100F0000F4DC07E0D4E9012118F805009047206AD5
:100F1000401C2062281EA5F10105F3DC2046FFF7E6
:100F2000ACFC2078000602D50220BDE8F087012045
:100F3000FBE770472DE9FF4F0C461E464FF0FF3789
:100F40008BB0D2E90001DDF860800A908A46C1F3D7
:100F50000A5505B93D460021084614F02BFFBAF1A9
:100F6000000F00F4400005DA00EB80004FF4400170
:100F700001EA50004FEA9059B9F1010F00DDB9467E
:100F80000A9850EA4A000ED044F61050A5F2FF35F8
:100F900045432F14B8F1000F1ED07542291E1EDDE7
:100FA000C9F100021CE0B8F1010F4FF0000001D0C0
:100FB000302103E0F24305E02154401CB042FBDB4A
:100FC00030460022002121540B99C1F80880C1E964
:100FD00000200FB0BDE8F08FBD1B6D1CDEE74A4658
:100FE00000DA694206A800F0EFFB06AB93E80700C1
:100FF00003AB83E8070050460A9900F02AFD8DE80C
:101000000700A0F500501F3800900398002D0ADD5E
:1010100042F21F014A460844002303A90390684690
:1010200000F093FF09E0A0F500504A461F38002366
:1010300003A90390684600F09DFF8DE807000004B7
:10104000000C03D04FF0FF30410800E01046B8F12B
:10105000000F03D00022009215461EE0751E05D435
:10106000FFF7B0FE303262556D1EF9D5B34601224E
:10107000084302D000227F1C04E02078302801D1F0
:1010800000227F1E002A099784D01DE0112D07DA67
:10109000FFF798FE303262556D1C50EA0102F5D11F
:1010A000084302D00098C8B10EE00021681E05E098
:1010B000235C625C63542254401E491C8142F7DB6E
:1010C000AB46A81B401E0990002004F80B000B98AB
:1010D000099AC0F80880C0E9002B7AE711264FF082
:1010E000000857E72DE9F04F88460446D21D22F04C
:1010F000070191B0D1E90001CDE90A010BF08DFAA9
:1011000002460B98C00F01D02D2007E02068810710
:1011100001D52B2002E0202101EAC000032A09901A
:1011200001D0072A05DB03464146204600F00CFBB0
:101130000BE12078800601D5E06900E00620B8F1D7
:10114000650F814606D0B8F1660F18D0B8F1670F69
:1011500070D131E00020B9F1110F009001DB1123B3
:1011600001E009F101030AAA01A90CA8FFF7E2FEB8
:10117000DDE90C70002609F10105834647E00120F6
:101180004B4600904FF000470AAA01A90CA8FFF7B0
:10119000D1FEDDE90DB00C995D46002610B909F1CC
:1011A00001000D18B9EB050003D4C0F1FF3609F1B9
:1011B0000105A5EB09002BE0B9F1010F01DA4FF0B1
:1011C00001090020B9F1110F0090484601DD1123FB
:1011D00000E003460AAA01A90CA8FFF7ABFEDDE96F
:1011E0000C704D4600268346207800070AD4AB4594
:1011F00000DA5D4601A8012D04DD411911F8011C3A
:10120000302907D04F4502DA17F1040F04DA012024
:1012100082460FE06D1EEEE7002F02DCED1B3E4420
:1012200003E0781CA84200DD7D1CB81B00F1010A18
:101230004FF000472078000703D4AA4501DB4FF0A8
:10124000FF3A0021B7F1004F0DF143088DF843102C
:1012500024D002202B23002F01DA7F422D230A21E4
:10126000021EA0F1010000DC5FB197FBF1FC97FBCF
:10127000F1F201FB1C7C17460CF1300C08F801CD93
:10128000EEE7A8F1010003702188090501D5452189
:1012900000E06521A0F1010800F8011C09980FA9E0
:1012A000A1EB0807FF1D00B10120411901EBEA7015
:1012B000A1693844081A401EA0612078C00602D4F3
:1012C0002046FFF7C4FA099828B1D4E901219047D4
:1012D000206A401C20622078C00622D52046FFF7F5
:1012E000B6FA1EE0002E04DBB34502DD01A8805DE6
:1012F00000E03020D4E901219047206A401C2062A0
:10130000761CAAF101005FEA000A0AD100F018FA7F
:10131000C0680168405CD4E901219047206A401C04
:101320002062281EA5F10105DCDC07E0D4E90121DB
:1013300018F8010B9047206A401C2062381EA7F164
:101340000107F3DC2046FFF798FA032011B041E6CD
:101350002DE9F04F04460D46D21D22F0070089B05A
:10136000D0E90097484639460BF057F90246F80F86
:1013700001D02D2307E02068810701D52B2302E04F
:10138000202101EAC0038DF820300BB1012000E0DC
:101390000020032A824601D0072A04DB2946204682
:1013A00000F0D2F93FE12078800601D40D2500E05D
:1013B000E569C7F30A560D2D49DA00214FEA175B9C
:1013C000084614F0F7FC002F00F4400007DA00EBA9
:1013D00080004FF4400100EBD07001EA60008115FD
:1013E000012901DD4FF0FF3100224FEA850CBCF1ED
:1013F000180F06D31346ACF118004FF08052C240CC
:1014000003E04FF4801323FA0CF30CF10C0CBCF145
:10141000200F04D3ACF1200C09FA0CF001E007FA1C
:101420000CF000294FF0004801DD18B90FE00ED193
:1014300040450CD319EB02095F4121B9404502D167
:101440009F4329EA0209BBEB175F00D0761C208876
:10145000000502D57B48784402E07A487844193880
:1014600008AA302302F80A30037C0AF10101002E99
:101470000AF1020A53546A4602DC4FF0300101E0DF
:101480004FF031014FF001088DF8001002D0A6F2A4
:10149000FF3603E059EA470100D06B4E002D02DC15
:1014A0002178090704D54FF002082E218DF801108C
:1014B000C44600210BE0C7F303433F01C35C491C52
:1014C0006D1E02F80830052908F1010801DA002D27
:1014D000F1DC00210CE000EB1973491C1B786D1E38
:1014E000082902F808304FEA091908F1010801DA61
:1014F000002DF0DC21688B0602D516E0A8F101086A
:10150000E04505DD02EB080313F8013C302BF5D074
:10151000B8F1000F09DD02EB080313F8013C2E2B94
:1015200003D1090701D4A8F10108002D05DD3E21F2
:1015300002F808106D1E08F10108407C002E02F828
:10154000080008F1010804DA2D20764202F80800AC
:1015500002E02B2002F808000A214FF47A7086423C
:1015600008F101080BDB96FBF0F3303302F808308A
:1015700096FBF0F308F1010800FB136601E0642E0E
:101580000CDB642096FBF0F3303302F8083096FB56
:10159000F0F308F1010800FB136601E00A2E06DBF8
:1015A00096FBF1F0303002F8080008F1010896FBD4
:1015B000F1F001FB1060303002F80800A16908F179
:1015C000010808EB050202EB0A00081AA061207866
:1015D000C00602D42046FFF73AF9216A08AE01EBB3
:1015E0000A00206204E0D4E9012116F8010B9047BB
:1015F000BAF1010AF7D22078C00602D52046FFF7DB
:1016000026F96E4609E016F8010B3E280FD0D4E902
:1016100001219047206A401C2062B8F10108F2D2F3
:101620002046FFF72AF909B00320BDE8F08F206AB1
:101630002844206203E0D4E90121302090476D1E48
:10164000EBD3F8E7B165010002FCFFFF10B5436979
:1016500013B1AFF3008001E0FFF732F9012010BDB4
:10166000127800F124010A7000224A700122EDE78D
:1016700011684FF0FF32E9E710B5436913B1AFF3DA
:10168000008001E0FFF7B4F9012010BD128800F1DD
:10169000240182840022C2840122EDE711684FF008
:1016A000FF32E9E770B516460C46054600F040F8F3
:1016B000036893F80101012806D0FF2C0FD8185DAC
:1016C00068B101202C7070BDD3F807013246214665
:1016D00003F2071303442846BDE8704018474FF053
:1016E000FF3070BD70477546FFF764FBAE460500DE
:1016F0006946534620F00700854618B020B5FEF72E
:101700007BFEBDE820404FF000064FF000074FF091
:1017100000084FF0000B21F00701AC46ACE8C0090F
:10172000ACE8C009ACE8C009ACE8C0098D46704718
:1017300010B500F005F8001D10BD00BFB52C01006C
:1017400000487047089800202DE9F0411F460446E4
:1017500003260168072A01F4006004DB08B116A51E
:1017600005E016A503E008B115A500E015A521F0D8
:1017700010002060A069C01EA0610FB1401EA061D2
:101780002046FFF764F84FB1D4E90121384690476D
:10179000206A401C2062C01C206206E0206AFAE732
:1017A000D4E9012115F8010B9047761EF8D22046A6
:1017B000FFF763F8BDE8F0814E414E006E616E00A8
:1017C000494E4600696E66002DE9F047814616468F
:1017D0008AB0354878440DC88DE80D003248784409
:1017E000801C03AC0DC884E80D0041F69B30084412
:1017F000372190FBF1F290FBF1F5A5F1800501FB9B
:1018000012041B3C02D56442012000E00020DFF8F6
:1018100098A080460027FA44AAF1BE0A0EE0E0072D
:101820000AD03246684607EB470101230AEB8101E3
:1018300000F0A0FB8DE8070064107F1C002CEED1A7
:10184000194F7F44AE3F19E0E80715D007EB0410AD
:101850000DF1180A90E80E008AE80E00C068F04208
:1018600001D1981908903246012306A903A800F077
:1018700081FB03AB83E807006D10641C002DE3D1EE
:101880004FF0010332466946B8F1000F03A802D0B9
:1018900000F05BFB01E000F06DFBC9E90001C9F855
:1018A00008200AB0BDE8F087C462010010B5044604
:1018B000AFF300802046BDE81040FEF728BD0028A9
:1018C00001D000F009B8704710B500F025F8BDE868
:1018D0001040FFF7F4BF000001491820ABBEFEE73F
:1018E0002600020070B505460C460A2000E06D1C7B
:1018F00000F0A8F835B128780028F8D102E0641C7F
:1019000000F0A0F814B120780028F8D1BDE87040AC
:101910000A2000F097B8000010B5022803D041015A
:1019200003D50DA112E0002010BD010101D50FA1CA
:101930000CE0C10001D511A108E0810001D512A180
:1019400004E0400001D513A100E0002115A0FFF73D
:10195000C9FF012010BD0000496E76616C696420EA
:101960004F7065726174696F6E000000446976693A
:101970006465204279205A65726F00004F76657267
:10198000666C6F7700000000556E646572666C6F60
:1019900077000000496E6578616374205265737545
:1019A0006C7400005349474650453A2041726974AF
:1019B000686D6574696320657863657074696F6EBE
:1019C0003A2000004FF0013C50F8042B51F8043B42
:1019D0009A4221D1A2EB0C03934313EACC1317D103
:1019E00050F8042B51F8043B9A4215D1A2EB0C039A
:1019F000934313EACC130BD150F8042B51F8043B5A
:101A00009A4209D1A2EB0C03934313EACC13DBD027
:101A10004FF00000704700BFD01A01BAB1FA81F14F
:101A200001F0180122FA01F0CB40C1F12001DBB234
:101A3000C0B2C01A2CFA01F3D11A914311EAC311B2
:101A4000E6D1704708B569468DF800000320ABBEAB
:101A500008BD5FEA400C08BF91F0000F4FEA8C23ED
:101A60004FEAC12243EA51514FEA1C5018BF00F51A
:101A7000F0404FEA300018BF41F000415FEA6C5C73
:101A800000F02980BCF1FF3F08BF40F08040704764
:101A9000130C06BF12044FF0100C4FF0000C130E85
:101AA00004BF12020CF1080C130F04BF12010CF159
:101AB000040C930F04BF92000CF1020CD30F04BF6F
:101AC00052000CF1010C11464FF00002A0F11F0072
:101AD000A0EB0C00704711F0004F08BF704731F0C9
:101AE00000413FF4D5AF0B0C06BF09044FF0100CBA
:101AF0004FF0000C0B0E04BF09020CF1080C0B0F89
:101B000004BF09010CF1040C8B0F04BF89000CF118
:101B1000020CCB0F04BF49000CF1010CCCF12003E7
:101B2000A0EB0C0022FA03F302FA0CF241EA0301E3
:101B300000F10100704720F07F4C80EA030023F0A1
:101B40007F47ACEB070303F57C5300F0004003F143
:101B5000FF032DE980494FEA154B09B44FEA1443BE
:101B600025EA0B4E24EA03480FF2042606EB13275E
:101B700049083E785FEA320203FB0667C7F50007B3
:101B800007FB06F64FEA54374FEAD64606F102063F
:101B900007FB066CCCF1005C4FEA1C472CEA074CB3
:101BA00007FB06F40CFB06F504EB15464FEA961608
:101BB00034BF00204FF000404FEAD13706FB07FC4E
:101BC0004FEA1C4C0CFB0BF7D21B03FB0CF761EB31
:101BD00007010CFB0EF7B0EB074072EB17420CFB52
:101BE00008F734BFA2EB0742B2EB074261EB1741A3
:101BF0004FEA0C444FEA910706FB07FC4FEA1C4CE6
:101C00000CFB0BF7B0EBC74072EB573203FB0CF742
:101C100034BFA2EBC742B2EBC74261EB57310CFBBA
:101C20000EF7B0EBC70072EB57720CFB08F734BF2E
:101C3000A2EBC702B2EBC70261EB5771039F4FEAF9
:101C4000816141EA921104EBCC044FEAD1374FEAAB
:101C5000826206FB07FC42EA90124FEA80604FEA7C
:101C60001C4C0CFB0BF7D21B03FB0CF761EB0701C1
:101C70000CFB0EF7B0EB074072EB17420CFB08F7BA
:101C800034BFA2EB0742B2EB074261EB17414FEAC8
:101C90008C554FEA910704EB9C2406FB07FC4FEAA6
:101CA0001C4C0CFB0BF7B0EBC74072EB573203FB3D
:101CB0000CF734BFA2EBC742B2EBC74261EB57311E
:101CC0000CFB0EF7B0EBC70072EB57720CFB08F77A
:101CD00034BFA2EBC702B2EBC70261EB577115EB41
:101CE0004C254FEA816141EA92114FEA82624FEA44
:101CF000D13742EA901206FB07FC44F100044FEA98
:101D000080604FEA1C4C0CFB0BF7D21B03FB0CF75B
:101D100061EB07010CFB0EF7B0EB074072EB1742CB
:101D20000CFB08F734BFA2EB0742B2EB074261EBB2
:101D3000174115EB1C154FEA813141EA92414FEAF8
:101D4000823242EA90424FEA80304FEA0C7644F108
:101D5000000448EA03434EEA0B484FF0000EB2EB92
:101D6000080C71EB030724BF624639464EEB0E0E9A
:101D70004FF0000B0018524149414BEB0B0BB2EBFB
:101D8000080C71EB03077BF1000B24BF6246394658
:101D90004EEB0E0E4FF0000B0018524149414BEB39
:101DA0000B0BB2EB080C71EB03077BF1000B24BFAC
:101DB000624639464EEB0E0E51EA020718BF46F056
:101DC000010616EB0E7655F1000254F1000103D521
:101DD000BDE88901BDE80088BDE88901BDE800488B
:101DE000B619524141EB0101A3F101037047808014
:101DF0007F7E7D7C7B7A7978777676757473727165
:101E000071706F6E6E6D6C6C6B6A6A69686867661C
:101E100066656464636362616160605F5F5E5E5DAE
:101E20005D5C5C5B5B5A5A59595858575756565522
:101E300055555454535352525251515050504F4F84
:101E40004F4E4E4D4D4D4C4C4C4B4B4B4A4A4A49D4
:101E50004949484848474747474646464545454417
:101E60004444444343434342424242414141002BA4
:101E70009C4630D477002BD01CB54FEA370703B40B
:101E80004FF010004FF01001BAF1000F06D0BCF176
:101E9000000FDCBF40F0080040F0080113F08AFF9B
:101EA0000FBCBDE810400BF1010BBBF1010F08BFE7
:101EB0005FEA170722BF12F1010211F101014FF091
:101EC000004143F1000300F0004043EA0000704786
:101ED000F9D35708D0E746EA064613F1400F4FEA18
:101EE00016461FDD13F1200FDFBF16430A460021FF
:101EF00020335B42BED0C3F1200746EA064602FA11
:101F000007F74FEA164646EA0706C3F1200722FA0A
:101F100003F201FA07F721FA03F14FF0000342EA56
:101F20000702A7E746EA020646EA06464FEA1646D1
:101F300046EA0106BCBF46EA0646360C4FF00003EF
:101F40004FF000024FF0000194E72DE9804C9A46D3
:101F5000934670B491E8380007C831EA400C48BF96
:101F600034EA430C03D5FFF7E6FDFFF780FFF0BC32
:101F7000BDE8008C2DE9804C9A46934670B491E8F8
:101F8000380007C810F0804F08BF13F0804F03D10E
:101F900000F005F8FFF76BFFF0BCBDE8008C20F007
:101FA0007F4780EA030023F07F4C07EB0C03A3F587
:101FB0007C5300F00040A3F1FE0392F0000F00F00C
:101FC000B38095F0000F00F077802DE901494FEACA
:101FD00011404FEA144621EA004800FB06FC24EABF
:101FE000064708FB06F607FB08F800FB07F718EBA7
:101FF00006484CEB164C4FEA124B18EB07484FEAD9
:1020000015464CEB174022EA0B4E0BFB06FC25EA6B
:1020100006470EFB06F607FB0EFE0BFB07F71EEB53
:10202000064E4CEB164C4FF000061EEB074E4CEBE9
:10203000174B18EB0B0840F1000018EB0E0B58EB98
:10204000000840F100008F1A4FF000013CBFC94367
:10205000661B14BFB5EB040C00213CBFC943F61B43
:102060004FEA17444EEA8E0E27EA04454FEA1C4712
:1020700004FB07622CEA074C05FB07F70CFB05F68F
:1020800004FB0CFC16EB074642EB174216EB0C4622
:1020900042EB1C421BEB060658EB0202414146EAAA
:1020A0009E0601D5BDE80189B619524141EB0101F7
:1020B000A3F10103BDE801894FEA14454FEA114736
:1020C00024EA054621EA074C05FB07F406FB07F75F
:1020D0000CFB06F105FB0CFC11EB074144EB17442C
:1020E0004FEA124711EB0C4144EB1C4422EA074C27
:1020F00005FB07F206FB07F70CFB06F605FB0CFCDD
:1021000016EB074642EB174216EB0C4642EB1C451A
:102110006A1854F1000148BF7047B619524141EBAB
:102120000101A3F10103704795F0000F37D04FEA8A
:1021300011424FEA144721EA024624EA074C02FB07
:1021400007F106FB07F70CFB06F402FB0CFC14EB93
:10215000074441EB17414FEA154714EB0C4441EBA0
:102160001C4125EA074C02FB07F506FB07F70CFBB1
:1021700006F602FB0CFC16EB074645EB174516EB83
:102180000C4645EB1C42121951F1000148BF704743
:10219000B619524141EB0101A3F1010370474FEA27
:1021A00014454FEA114724EA054621EA074C05FB8E
:1021B00007F106FB07F70CFB06F24FF0000605FBE4
:1021C0000CFC12EB074241EB174112EB0C4251EBB6
:1021D0001C4148BF7047921841EB0101A3F1010374
:1021E000704700004A494A6822F440324A604A680F
:1021F00043681A434A6001684A6822F480724A6060
:1022000001684A68036942EA03224A6001684A6831
:1022100022F040724A6001684A6883681A434A6043
:1022200001688A6822F400628A6001688A68C3686B
:102230001A438A60816A6FF07062D14214D00168DB
:102240008A6822F070628A6001688A68836A1A4329
:102250008A6001688A6822F040528A6001688A6850
:10226000C36A1A438A6009E001688A6822F07062D2
:102270008A6001688A6822F040528A6001688A6830
:1022800022F002028A6001688A68037E42EA430201
:102290008A6090F8201089B101684A6842F40062AF
:1022A0004A6001684A6822F460424A6001684A68EC
:1022B000436A5B1E42EA43324A6004E001684A68AE
:1022C00022F400624A600168CA6A22F47002CA629B
:1022D0000168CA6A838B5B1E42EA0352CA620168C4
:1022E0008A6822F400728A6001688A6890F8303047
:1022F00042EA43228A6001688A6822F480628A6026
:1023000001688A68406942EA80208860704700005E
:10231000002301400AF0ACB90AF0A6BCFEF77EB873
:10232000F0EE400AF5EEC00AF1EE10FA02DDB0EE72
:10233000600A7047B1EE600AFBE70000002803D096
:102340009FED020A80ED000A7047000000000000C7
:10235000002803D0B3EE060A80ED000A70470000A3
:1023600070B52DED0C8B84B006460C4615469FEDDE
:10237000990AF0EE408A9FED970AB0EE409A9FEDE1
:10238000950AF0EE40BA9FED930AF0EE409A9FED69
:10239000910AB0EE40AA0EB104B11DB904B0BDEC73
:1023A0000C8B70BD8C48FFF7C9FF8C48FFF7D0FF3E
:1023B0008A48D0ED000A9FED8A1A60EE810AB0EEDD
:1023C000600A00F025F9F0EE408A28EEA80AF0EE47
:1023D000408A8248D0ED000AB0EE001A60EE810A11
:1023E0009FED7F1A60EE810AB0EE600A00F010F9EE
:1023F000B0EE409A29EE090AB0EE409ADFED790A74
:10240000B7EE000A00EEA80ADFED770A00EEC90A6F
:10241000DFED760A20EE200A754880ED000A6E484E
:1024200090ED000ADFED730A80EE201AB7EE000A85
:1024300031EE000A20EE000A6D48D0ED000A80EE71
:10244000801A6D4880ED001A94ED000AB5EEC00ABE
:10245000F1EE10FA0DD194ED010AB5EEC00AF1EEDD
:1024600010FA06D194ED020AB5EEC00AF1EE10FAA8
:1024700046D09FED580AB0EE408A002001900290AD
:102480000390D4ED000A60EEA00A94ED011AD4ED99
:10249000011A41EE210A94ED021AD4ED021A41EE1E
:1024A000210AB0EE600A00F0A9F8B0EE408A94ED7F
:1024B000000A20EE080A8DED010A94ED010A20EED3
:1024C000080A8DED020A94ED020A20EE080A8DED4D
:1024D000030ADDED010AF1EE600AB0EE600AFFF7D3
:1024E00019FFF0EE409A9DED031AF0EE410A9DEDC2
:1024F000021AB0EE410AFFF70FFFB0EE40AA07E064
:102500009FED340AF0EE409A9FED320AB0EE40AAF9
:1025100095ED000AB5EEC00AF1EE10FA0DD195ED79
:10252000010AB5EEC00AF1EE10FA06D195ED020AE5
:10253000B5EEC00AF1EE10FA3CD0B0EE690A00F038
:1025400067F8B0EE408AB0EE690AFFF7E7FEB0EE3A
:1025500040DAB0EE4A0A00F05BF8F0EE40AAB0EEC6
:102560004A0AFFF7DBFEB0EE40BA28EE2A0AD5EDA4
:10257000010A20EE200AD5ED000A0DEE200A68EED1
:102580000B0A95ED021A00EE810AB0EE40CA95EDF5
:10259000010A20EE0B0AD5ED020A0AEEE00AF0EE7F
:1025A00040CAF0EE6C0AB0EE4C0AFFF7B5FEF0EE52
:1025B00040BA03E09FED070AF0EE40BAB0EE4A1AC7
:1025C000F0EE690AB0EE6B0A30460CF051FB00BF2A
:1025D000E4E60000000000008C07002090070020C7
:1025E00035FA8E3CC1BFAD3B9DF8C5362F7C1C41F2
:1025F00094070020506CC24A9807002010B50AF0DA
:10260000DCFEB7EE001AC1EE000AB0EE600A10BDA3
:10261000FDF740BF2DE9F0412DED028B9AB0054644
:10262000B0EE408A0E461746984600201790189044
:1026300019901490159016904DB146B13FB1B8F174
:10264000000F04D0B5EEC08AF1EE10FA05D10020DB
:102650001AB0BDEC028BBDE8F08196ED000A8DED5D
:10266000170A96ED010A8DED180A96ED020A8DED16
:10267000190A97ED000A8DED140A97ED010A8DED08
:10268000150A97ED020A8DED160A17AA14A9284615
:102690000CF022F9402104A8FEF7A4F800200090D5
:1026A000019002900390002417A904A810F066FD81
:1026B00000BF30E004A800EB041090ED000AD5ED57
:1026C000000A20EE200A04A800EB0410D0ED010A55
:1026D00095ED011A00EE810A04A800EB0410D0ED7C
:1026E000020A95ED021A00EE810A04A800EB04101C
:1026F000D0ED030A95ED031A00EE810A20EE080AD8
:10270000F0EE000A80EE201A684600EB840080EDAF
:10271000001A601CC4B2042CCCDB002410E005EBD2
:10272000840090ED000A684600EB8400D0ED000ABA
:1027300030EE200A05EB840080ED000A601CC4B274
:10274000042CECDB28460FF0C5FD012080E70000DB
:1027500001221021014803F021BA000000000240CC
:1027600000221021014803F019BA000000000240C5
:102770007047000001221146014803F00FBA000023
:102780000004024000220121014803F007BA0000C2
:102790000004024030B5437804781B021BB2234387
:1027A00000EE103A1B4CB8EEC00AD4ED000A20EE41
:1027B000200A81ED000AC37885781B021BB22B43E7
:1027C00000EE103AF8EEC00A94ED000A60EE800ABE
:1027D000C1ED010A437904791B021BB2234300EEC9
:1027E000903AF8EEE00A20EE800A81ED020A017AC2
:1027F000C3790904807941EA0321014300EE101AEC
:10280000DFED050AB8EE400A20EE200A82ED000A4C
:1028100030BD00009C02002000401C4270470EF0BA
:102820005BBF0DF0ABBE000010B54278037812021A
:1028300012B21A4300EE102A124BB8EEC00AD3EDC2
:10284000010A20EE200A81ED000AC2788478120283
:1028500012B2224300EE102AF8EEC00A93ED010AEC
:1028600060EE800AC1ED010A42790079120212B2CB
:10287000024300EE902AF8EEE00A20EE800A81ED95
:10288000020A10BD9C02002010B5FFF771FFFFF790
:10289000C5FF0CF065FB08B1802402E00CF0D2FA11
:1028A00004460CF023FD10B144F0400010BD0CF0C4
:1028B000AFFC204310BD00002DE9FC4104460D464D
:1028C0001646002000900190FFF74AFF922000F08A
:1028D000BFF806226946122000F09CF8FFF738FF87
:1028E0009DF801009DF80010000200B2084300EEC0
:1028F000100A474FB8EEC00AD7ED000A20EE200AB2
:1029000085ED000A9DF803009DF80210000200B258
:10291000084300EE100AF8EEC00A97ED000A60EED8
:10292000800AC5ED010A9DF805009DF8041000021B
:1029300000B2084300EE900AF8EEE00A20EE800AAA
:1029400085ED020AFFF71EFF08226946002000F00D
:1029500061F8FFF70FFF9DF800000F2830D19DF8B8
:1029600003009DF80210000200B2084300EE100AB6
:10297000D7ED010AB8EEC00A20EE200A84ED000A65
:102980009DF805009DF80410000200B2084300EE17
:10299000100AF8EEC00A97ED010A60EE800AC4ED55
:1029A000010A9DF807009DF80610000200B20843D6
:1029B00000EE900AF8EEE00A20EE800A84ED020AAA
:1029C000FFF7CEFEA22000F043F802226946222043
:1029D00000F020F8FFF7BCFE9DF800009DF8011004
:1029E000C00040EA5110B0F5806F02DBA0F5006036
:1029F00000B200EE100AB4EE001AF8EEC00AB3EE10
:102A0000070A00EE810A86ED000ABDE8FC8100009D
:102A10009C02002070B50D46144640F0800000F086
:102A200017F806E0552000F013F805F8010B641EB6
:102A3000E4B2002CF6D170BD10B50C4640F0800019
:102A400000F006F8552000F003F8207010BD0000DB
:102A500001B582B04FF47A700090012301AA02A957
:102A6000024804F031FB9DF804000EBD4010002028
:102A700002784078D20042EA5010B0F5806F02DB55
:102A8000A0F5006000B200EE100AB4EE001AF8EEF5
:102A9000C00AB3EE070A00EE810A81ED000A704712
:102AA00010B50C46FFF7D4FF2046BDE81040FFF7F5
:102AB000CFBFFEE7014802F07EB80000D40E002030
:102AC000014802F078B80000FC0E002008B5074B62
:102AD000186000209860D860082018610A466B468C
:102AE0000249034801F0A0FE08BD0000882D002027
:102AF000D40E00202DE9F04304462DED088B83B061
:102B0000F0EE409A9FED4C9A4FF000099FED4B8BF1
:102B100051EC180B11F08EFC0AEE100A51EC180B58
:102B200011F088FC0BEE100AB5EEC09AF1EE10FA27
:102B300002D8F0EE498A01E0F0EE498AB0EE490A87
:102B4000B5EEC00AF1EE10FA02D8F0EE49AA01E0A3
:102B5000F0EE49AA19EE900A3A49884202D3BBEE38
:102B6000028A09E019EE900A3749884202DBB3EE87
:102B7000028A01E0B0EE698A1020B2EE091AFAEE7C
:102B8000090AB0EE4A0A0DF0DEFD05460C20B3EE50
:102B90000E1AFBEE0E0AB0EE4B0A0DF0D4FD0646FF
:102BA0000C209FED2A1AF0EE490AB0EE680A0DF0EB
:102BB000CAFD07460C20B1EE041AF0EE490AB0EE49
:102BC0006A0A0DF0C0FD80460C20B3EE021AFBEE3F
:102BD000020AB0EE480A0DF0B6FD290A8DF8001081
:102BE0008DF8015031098DF80210310141EA1721A9
:102BF0008DF803108DF804704FEA18118DF8051048
:102C00004FEA081141EA10218DF806108DF80700EF
:102C10000F480460C0F80890C0F80C9008210161CA
:102C2000014602AB6A460B4801F0FEFD03B0BDEC65
:102C3000088BBDE8F08300000000000000000000E9
:102C400000000000000090C1000090410000FA4325
:102C5000882D0020D40E00200FB581B014484FF409
:102C60002071016000218160C1600821016111486B
:102C70009DF8041001709DF8051041709DF8081032
:102C800081709DF80910C1709DF80C1001719DF8BC
:102C90000D1041719DF8101081719DF81110C171D6
:102CA00002466B460249044801F0BEFD05B000BD76
:102CB000882D002081020020FC0E002003B581B089
:102CC00001A90B486122026000228260C2600822D2
:102CD00002610020074A0B5C1354401CC0B2082854
:102CE000F9D36B46034A0249034801F09DFD0EBD2E
:102CF000882D002081020020D40E002038B50E4C13
:102D000040F2FF1525600025A560E56008252561D6
:102D10000A4C050A25706070080AA070E170100A5C
:102D200020716271180AA071E3716B462246024954
:102D3000034801F079FD38BD702D00207902002094
:102D4000FC0E00202DE9F04104462DED028BA07809
:102D50009FED678B01260025032831D1206C12F0EE
:102D6000CBFE41EC100B0AF0B3F953EC182B51ECED
:102D7000100B12F062FA01D8A67421E0D4F85801C1
:102D800012F0BAFE41EC100B0AF0A2F953EC182B2A
:102D900051EC100B12F076F812D2206C12F0ACFE4F
:102DA00041EC100B0AF094F99FED531B51EC100B02
:102DB00053EC112B12F066F802D2A07C00B1A5747E
:102DC000204608F03DFCA07B4D4F012801D1617BDE
:102DD00021B1217C012905D1E17B19B99FED490A77
:102DE00087ED0A0A97ED0A0AB5EEC00AF1EE10FA6D
:102DF00008DDF7EE000A30EE600A87ED0A0A657317
:102E0000E57333E0217A04290ED094ED7E0A3E4A20
:102E10003E4BB5EEC00AF1EE10FA08D8D4F89C107B
:102E2000914204DD667307E0E57365731EE010EE02
:102E3000101A994200DD657394ED7F0AB5EEC00A61
:102E4000F1EE10FA05D8D4F8A410914201DDE67332
:102E500004E010EE101A994200DDE573617B012950
:102E600004D0E17B012901D16573E573A17C0129BF
:102E700008D108B1207C28B9607B012835D0E07BDF
:102E8000012832D0012900D06574607C08B1E57357
:102E90006573F86812F030FE41EC180BD4F8580155
:102EA00012F02AFE41EC100B0AF012F953EC182B29
:102EB00051EC100B12F0C1F913D2386912F01CFE5C
:102EC00041EC180B206D12F017FE41EC100B0AF0CC
:102ED000FFF853EC182B51EC100B12F0AEF900D2A6
:102EE000E675BDEC028BBDE8F0816674CDE70000AD
:102EF000000000000000E03F000000A09999B93FE9
:102F0000400000200000E143B81E053E0000A04044
:102F10002DE9F04104462DED028B20789FEDFE8ACD
:102F2000012802D1A178042923D1022821D02046EA
:102F300005F078FDE17B012938D0607B012835D090
:102F4000A07A90B3F54894ED110A00F14802D0ED53
:102F5000050AB4EEE00AF1EE10FA2CDDD4ED200AF9
:102F600030EEC00AD2ED000A20EE200A80ED0E0AF3
:102F700035E084ED708A84ED718A84ED698A84ED90
:102F80006A8A84ED618A84ED628A84ED638A84EDC5
:102F9000648A84ED5B8A84ED5C8A84ED5D8A84EDCD
:102FA0005E8ABDEC028BBDE8F081FFE784ED6A8AA2
:102FB00084ED698A3FE0F1EE600AB4EEE00AF1EEDA
:102FC00010FA0AD2D4ED200A30EEC00AD2ED000A7F
:102FD00020EE200A80ED0E0A01E080ED0E8A94EDCD
:102FE000160AD0ED060AB4EEE00AF1EE10FA06DD9C
:102FF000D2ED010A20EE800A80ED0F0A0FE0F1EE1B
:10300000600AB4EEE00AF1EE10FA06D2D2ED010A3F
:1030100020EE800A80ED0F0A01E080ED0F8A90ED2E
:103020000E0AD0ED0F0A30EE200A84ED6A0AB1EEE6
:10303000400A84ED690A207A04287CD005287BD0D8
:10304000B64E20797036022877D004F27C4004F224
:10305000C447DFEDB38A04F5806501296ED0617B3A
:103060000129FBD0A178042969D0D4ED250A94ED7B
:10307000270A06F015FC95ED270A30EE280A84EDA4
:10308000700AD4ED260A94ED290A384606F008FCA9
:1030900095ED390A30EE280A84ED710A217AA148AB
:1030A00005297CD0A17A00297AD0A1780429FBD007
:1030B00094ED3A0AD4ED380A90ED1D2A30EE600AFC
:1030C000D0ED180A20EE201A90ED190AD4ED400A2E
:1030D00000EE601A94ED1F0AD4ED100A70EE602A1B
:1030E00090ED1C0AD4ED150A00EE221A94ED220A86
:1030F00070EE601A02EE211A84ED611A94ED531AF3
:10310000D4ED521A90ED154A31EE612A90ED141A61
:10311000D4ED561A22EE013A94ED571A71EE613A47
:1031200004EE233A84ED633A94ED3E3AD4ED3C3A12
:1031300033EE633A04E0B7E0DEE013E135E17AE133
:10314000D0ED243A94ED414A30EEC00A23EE233A02
:10315000D0ED253AD0ED270A03EEC43AD0ED263A59
:1031600003EEA23A10EE803A84ED623A31EEC10AE3
:10317000D0ED1F0A20EE200AD0ED1E0A00EEC20A92
:1031800084ED640A94ED3A0AD4ED380A30EE600A10
:10319000D0ED040A20EE201A90ED050A01E06FE15F
:1031A00097E1D4ED400AD4ED151A00EE601A94EDC3
:1031B0001F0AD4ED100A30EE600AD0ED080A00EEC6
:1031C000801AD4ED220A70EEE10AD0ED091A01EE60
:1031D000A01A9FED553A21EE031A84ED5B1A94ED87
:1031E000531AD4ED521A94ED562AD4ED0F2A31EE2B
:1031F000611AD0ED001A94ED144A61EE213AD4ED33
:10320000571A71EEC21A90ED012A42EE213A94ED5E
:103210001E2A32EE622AD0ED022A42EE823AD4ED24
:10322000212A72EEC42A90ED034A44EE223A23EE9C
:10323000833A84ED5D3A94ED3E3AD4ED3C3A94ED18
:10324000414A33EE633AD0ED103A23EE233AD0ED03
:10325000113A03EEC43AD0ED123A03EE803A90ED03
:10326000130A00EE203A9FED310A63EE000AC4ED26
:103270005C0AD0ED0A0A61EE200A90ED0B1A41EECD
:10328000210A90ED0C1A41EE020A90ED0D1A41EE62
:10329000220A20EE800A84ED5E0AE07B01287CD0C1
:1032A000607B012879D020E194ED250AD4ED270A2E
:1032B0001A4894ED2F1A503030EE600AD0ED000A13
:1032C00020EE200AD0ED010A00EEC10A84ED700A5A
:1032D00094ED260AD4ED290A083094ED301A30EE28
:1032E000600AD0ED000A20EE200AD0ED010A00EEBF
:1032F000C10A84ED710AD1E694ED250AD4ED270ABE
:103300000648603070EE600A90ED000A20EE800AF8
:10331000D0ED010A0CE00000000000004000002099
:1033200000004842DC32002020529A4220529AC2C9
:1033300094ED2F1A00EEC10A84ED700A94ED260A6E
:10334000D4ED290A083094ED301A30EE600AD0ED41
:10335000000A20EE200AD0ED010A00EEC10A84ED39
:10336000710A9BE694ED250AD4ED270AD4ED2F1AB5
:1033700070EE600A96ED000A20EE801AD6ED010A82
:1033800000EEE11A84ED701A94ED261AD4ED291A94
:1033900031EE611A21EE000A00E0A3E094ED301A4C
:1033A00000EEC10A84ED710A78E6617B01291CD028
:1033B000D4ED250A94ED270A06F072FA95ED270A56
:1033C00030EE280A84ED700AE07B012820D0D4ED8D
:1033D000260A94ED290A384606F062FA95ED390A74
:1033E00030EE280A84ED710A58E694ED250AD4EDF2
:1033F000270A94ED2F1A30EE600AD6ED000A20EE6F
:10340000200AD6ED010A00EEC10A84ED700ADBE75E
:1034100094ED260AD4ED290A96ED011A30EE600AE1
:10342000D6ED000A20EE200AD4ED300A01EE600A43
:1034300084ED710A32E694ED250AD4ED270A30EEC8
:10344000600AD6ED000A9FED451A94ED2F2AF0EEA2
:10345000411A40EE801A96ED010A40EE421AC4ED80
:10346000701AD4ED261A94ED292A71EEC21A00EED4
:10347000A11AD4ED300A00EE601A84ED711A0DE63F
:1034800094ED3A0AD4ED380A94ED401A30EE600A11
:10349000D0ED180A20EE200AD0ED190A00EEC10A7C
:1034A00084ED610A90ED250AD4ED410A94ED3C1AB1
:1034B00020EE200AD4ED3E0A70EEC10A90ED241AE7
:1034C00001EE600A84ED620A84ED638A84ED648A09
:1034D00058E684ED618A84ED638A84ED628A84ED26
:1034E000648A4FE620460DF0B1FB1D49D4F8740103
:1034F000DFED1C0A1C4A9FED1D0A884202DDC4ED67
:103500005D0A03E0904201D984ED5D0AD4F87801A8
:10351000884202DDC4ED5E0A03E0904201D984EDE9
:103520005E0A1349D4F88C01124AB3EE040AFBEE8A
:10353000040A884202DD84ED630A03E0904201D967
:10354000C4ED630AD4F89001884202DD84ED640A78
:1035500027E59042FCD9C4ED640A22E50000DC4175
:1035600000204B4600204B4600204BC600204BC697
:103570000000A0410000A0C110B504460121D4ED17
:10358000380A94ED270A20460DF0F4F984ED8C0AF0
:10359000D4ED380A94ED270A032120460DF0EAF90C
:1035A00084ED8D0AD4ED380A94ED270A02212046D5
:1035B0000DF0E0F984ED8E0AD4ED380A94ED270A77
:1035C000042120460DF0D6F984ED8F0AD4ED3C0A93
:1035D00094ED290A012120460DF0CCF984ED900AE2
:1035E000D4ED3C0A94ED290A032120460DF0C2F9DE
:1035F00084ED910AD4ED3C0A94ED290A022120467B
:103600000DF0B8F984ED920AD4ED3C0A94ED290A44
:10361000042120460DF0AEF984ED930AD4ED5B0A47
:1036200094ED5D1A70EE810AC4ED5F0A94ED5C1AA8
:10363000D4ED5E1A31EE211A84ED601A04F5806033
:10364000C0EDC10A80EDCD1AD4F8C01291F8201057
:1036500002292BD1DFED750AC0EDC10AC0EDCD0AFC
:103660007349744A4968DFED740A9FED741A9142F8
:1036700004DDC0EDC10A80EDCD1A17E0704B994210
:1036800004D980EDC11AC0EDCD0A0FE068491431AC
:103690004968914204DDC0EDC10AC0EDCD0A05E0E4
:1036A000994203D980EDC11A80EDCD1A4FF08A43BB
:1036B000DFED640AD0F804139FED631A4FF0454222
:1036C000994202DDC0EDC10A03E0914201D980EDCB
:1036D000C11AD0F83413994202DDC0EDCD0A03E0DF
:1036E000914201D980EDCD1AD4ED610A94ED631AAF
:1036F00070EE810AC4ED670A94ED621AD4ED641A83
:1037000031EE211A84ED681AD4ED701A94ED692A0D
:1037100071EE821AC4ED741A94ED712AD4ED6A2AFE
:1037200032EE222A84ED752AD4ED8E2AF1EE622A39
:1037300020EEA23A84ED6D3AD4ED8F2A60EEA23AE3
:10374000C4ED6E3AD4ED920AF1EE600A61EE202AE1
:10375000C4ED6B2A21EE004A84ED6C4A94ED8C0A8C
:1037600021EE800A84ED7A0AD4ED8D0AF1EE600A2A
:1037700061EEA00AC4ED7B0A94ED901AB1EE411AF5
:1037800022EE011A84ED781AD4ED911A62EE211A14
:10379000C4ED791A33EE000A80ED960A73EEA00AA2
:1037A000C0EDA00A32EE811A80EDAA1A74EE211A39
:1037B000C0EDB41A10EE103A244A2549BBEE022A95
:1037C000F3EE022A934202D980ED962A05E010EE2C
:1037D000103A8B4201DDC0ED962A10EE903A9342EA
:1037E00002D980EDA02A05E010EE903A8B4201DD6F
:1037F000C0EDA02A11EE103A934202D980EDAA2A18
:1038000005E011EE103A8B4201DDC0EDAA2A11EE5F
:10381000903A934202D980EDB42A10BD11EE902A5D
:103820008A42FADDC0EDB42A10BD0000000000009D
:10383000AC1C00200AD7233C0000C8430000C8C3CA
:103840000AD723BC00000045000000C5000090C15D
:1038500000009041002803D00249012048707047C1
:10386000002070474000002010B5124A5068000147
:103870001FD5114B114C4FF00061586B0068A042EE
:1038800003D90E484C3801600EE00A4CB834A0420F
:1038900003D90A485038016006E0064C5834A0426B
:1038A00001D9D16000E091601868016841F40071AD
:1038B000016010BD00600240780F00205864024093
:1038C000014801F091BE0000A01400202DE9F05F36
:1038D000FA48FB4AFA4DC06CFA4EF94F0068DFF81F
:1038E000E4C3DFF8DC83DFF8DC93DFF8D4A3DFF890
:1038F000D4B3DFF8CCE3F34C483D60361837D1142D
:103900000CF1180CA8F1300809F178090AF1300A15
:103910000BF1300BAEF1180E90423ED9E84A543A02
:103920001368A04201D1202235E0A84201D1202213
:1039300031E0B04201D120222DE0B84201D1202255
:1039400029E0604501D10A4625E0404501D10A46FB
:1039500021E0484501D10A461DE0504501D10A4603
:1039600019E0584502D14FF4001214E0704502D11D
:103970004FF400120FE0D34A9032904202D14FF43C
:10398000001208E0CE4A4832904202D14FF40012B1
:1039900001E04FF000621340C3E0CA4AA8329042EF
:1039A0003ED9C74A583A1368A04201D1202235E0D7
:1039B000A84201D1202231E0B04201D120222DE0E5
:1039C000B84201D1202229E0604501D10A4625E014
:1039D000404501D10A4621E0484501D10A461DE093
:1039E000504501D10A4619E0584502D14FF4001262
:1039F00014E0704502D14FF400120FE0B14A90324A
:103A0000904202D14FF4001208E0AD4A4832904291
:103A100002D14FF4001201E04FF00062134080E049
:103A2000A84A483290423ED9A64A103A5368A0426A
:103A300001D1202235E0A84201D1202231E0B0425C
:103A400001D120222DE0B84201D1202229E0604599
:103A500001D10A4625E0404501D10A4621E048450A
:103A600001D10A461DE0504501D10A4619E05845EA
:103A700002D14FF4001214E0704502D14FF400124D
:103A80000FE0904A9032904202D14FF4001208E0C9
:103A90008B4A4832904202D14FF4001201E04FF0BD
:103AA000006213403DE0874A103A1368A04201D1FA
:103AB000202235E0A84201D1202231E0B04201D1DC
:103AC00020222DE0B84201D1202229E0604501D119
:103AD0000A4625E0404501D10A4621E0484501D18A
:103AE0000A461DE0504501D10A4619E0584502D169
:103AF0004FF4001214E0704502D14FF400120FE0B1
:103B0000704A9032904202D14FF4001208E06C4AA1
:103B10004832904202D14FF4001201E04FF00062AF
:103B20001340002B72D0664A904235D9A04201D191
:103B300020212DE0A84201D1202129E0B04201D16D
:103B4000202125E0B84201D1202121E060451FD08D
:103B500040451DD048451BD0504519D0584502D18D
:103B60004FF4001114E0704502D14FF400110FE042
:103B700054499031884202D14FF4001108E0504975
:103B80004831884202D14FF4001101E04FF000614A
:103B90004B484C380160ADE04A4AA832904236D9D1
:103BA000A04201D120212DE0A84201D1202129E00D
:103BB000B04201D1202125E0B84201D1202121E0ED
:103BC00060451FD040451DD048451BD0504519D0F9
:103BD000584502D14FF4001114E0704502D14FF462
:103BE00000110FE037499031884202D14FF40011A3
:103BF00008E033494831884202D14FF4001101E016
:103C00004FF000612E485038016073E0B6E02D4A55
:103C10004832904235D9A04201D120212DE0A8425E
:103C200001D1202129E0B04201D1202125E0B84274
:103C300001D1202121E060451FD040451DD04845DD
:103C40001BD0504519D0584502D14FF4001114E053
:103C5000704502D14FF400110FE01A4990318842AB
:103C600002D14FF4001108E015494831884202D1D1
:103C70004FF4001101E04FF0006112481038C160AC
:103C800038E0A04201D1202131E0A84201D1202119
:103C90002DE0B04201D1202129E0B84201D12021FC
:103CA00025E0604523D0404521D048451FD05045F0
:103CB0001DD0584508D14FF4001118E040100020E5
:103CC0005864024010600240704502D14FF4001168
:103CD0000DE02B49884202D14FF4001107E0294939
:103CE000884202D14FF4001101E04FF000612448F6
:103CF000A0388160244C207880070CD5207820F0F3
:103D000002002070207840F004002070012211464B
:103D10001E4801F043FF60781D4D80070CD5607888
:103D200020F002006070607840F0040060700122B2
:103D30001021284601F032FFA07880070CD5A0782A
:103D400020F00200A070A07840F00400A0700122D2
:103D50001021284601F022FF0DF030F820784007AE
:103D60000CD5207820F004002070207840F0080066
:103D700020700848016841F001010160BDE8F09F32
:103D8000A0600240A0640240B8000020000402408D
:103D900000000240103C0140014801F025BC000039
:103DA00000150020014801F01FBC0000E0130020B6
:103DB00001680A4BCAB2103AA3FB02321209084B3F
:103DC0009B5CC365032A04D96FF30901091D816552
:103DD00002E06FF309018165806D7047ABAAAAAA62
:103DE000B66F0108014600208A6A8B69002B0FD04C
:103DF000B3F5005F1DD08AB3012A30D0022A2ED03D
:103E0000032A04D1C96A11F0807F00D001207047D5
:103E10001AB1012A07D0022AF9D1C96A11F0807FAC
:103E2000F5D001207047C96AB1F1C07FFAD10120F5
:103E300070475AB1012A0BD0022A07D0032AF7D1C2
:103E4000C96AB1F1C07FF3D10120704701207047EA
:103E5000C96A11F0807FFAD001207047FFE7012086
:103E600070477047012001F077BD082001F074BD54
:103E7000102001F071BD202001F06EBD70470000E0
:103E800073B504462DED040B0D462DED108B82B05D
:103E9000DFEDFEDAF0EE6DEADFEDFD0A70EE201ADE
:103EA0009FEDFC0A61EE801AC1EEA08A30EEC11AC5
:103EB00021EE000A80EE208A18EE900A11F01CFE16
:103EC00041EC100B08F0F8FF51EC100B10F0B2FAB7
:103ED0000EEE100A18EE900A11F00EFE41EC100BD7
:103EE00009F002F951EC100B10F0A4FA0AEE900A56
:103EF00018EE100A11F000FE41EC100B08F0DCFF88
:103F000051EC100B10F096FA009018EE100A11F018
:103F1000F3FD41EC100B09F0E7F851EC100B10F039
:103F200089FA0FEE100A9FEDDC0A9FEDDCAA0EEE77
:103F300000AADDED000A9FEDDADA00EEC0DA2AEE23
:103F400080CA6FEE00FA3DEE4A0A3FEECC1A60EEF0
:103F5000001A41EE011A9FEDD32A60EE020A21EE0B
:103F600002BA9FEDD10A31EE801A31EE400A20EEFE
:103F7000A09A0BEE0B9A00EE409AB5EEC09AF1EEC5
:103F800010FA01D2B0EE6D9A30EE800A10EE100AEF
:103F900011F0B2FD41EC180B19EE100A11F0ACFD56
:103FA00041EC100B09F0CCF9B0EE409AF0EE609ABB
:103FB0001BEE100A11F0A0FD53EC192B10F09CFB26
:103FC00041EC100BB0EE481AF0EE681A08F054FD00
:103FD0009FEDB61B51EC100B53EC112B10F08EFF24
:103FE00010F028FA08EE900A18EE900A11F084FDFD
:103FF00041EC100B08F060FF9FEDAEBB51EC100BD5
:1040000053EC1B2B10F07AFF41EC190B1AEE100A3F
:1040100011F072FD53EC192B10F06EFB10F00AFA40
:104020000AEE100A18EE900A11F066FD41EC100B32
:1040300009F05AF853EC1B2B51EC100B10F05EFFFB
:1040400041EC190B1CEE100A11F056FD53EC192B24
:1040500010F052FB10F0EEF909EE100A2AEE0A0AEF
:1040600009EE090A10EE100A11F046FD41EC100BA2
:1040700009F066F951EC100B10F0DCF908EE100AAB
:1040800019EE100A11F038FD41EC1C0B1AEE100A63
:1040900011F032FD41EC100BB0EE4C1AF0EE6C1A40
:1040A00008F0EAFC51EC100B10F0C4F909EE900A8C
:1040B0009DED130ADFED810A20EE200A60EE2AAAA8
:1040C0009DED130A9FED741A20EE010A20EE0EEA10
:1040D0009DED150A20EE200A60EE0F0ACDED010AD3
:1040E000DDED000A20EE200AB0EE40FA3AEE4D0A6D
:1040F00010EE100A11F000FD39EE6F0A41EC1C0BB6
:1041000010EE100A11F0F8FC41EC100BB0EE4C1A56
:10411000F0EE6C1A08F0B0FC51EC100B10F08AF9BC
:104120000DEE100A3DEE680A10EE100A11F0E4FCE4
:1041300041EC100B08F0D8FF53EC1B2B51EC100B8B
:1041400010F0DCFE10F076F90646304611F0D4FC93
:1041500041EC100B08F0BCFF9FED591B51EC100B0C
:1041600053EC112B11F069F87ED218EE100A564963
:10417000884279DD304611F0BFFC41EC1B0B1DEE8F
:10418000100A11F0B9FC41EC100B08F0ADFFB0EED5
:1041900040CAB0EE4F0AF0EE60CA30EE4E0A10EEA2
:1041A000100A11F0A9FC53EC1C2B10F0A7FE41ECF7
:1041B0001C0B1DEE100A11F09FFC41EC100B08F0D7
:1041C0007BFEB0EE40DA9DED010AF0EE60DA30EEF3
:1041D0006A0A10EE100A11F08FFC53EC1D2B10F040
:1041E0008DFE53EC1C2B10F087FA53EC1B2B10F0B8
:1041F000B5FB10F01FF90CEE100A18EE900A11F042
:104200007BFC41EC100B08F06FFFB0EE40BA9FED65
:104210002F0AF0EE60BA2CEE00CA1CEE100A11F064
:104220006BFC53EC1B2B10F069FE41EC1B0B1AEEE0
:10423000900A11F061FC53EC1B2B11F05BF910F0AC
:10424000F9F80AEE900A18EE900A11F055FC41ECCC
:10425000100B08F031FEB0EE40BAF0EE60BA1CEE82
:10426000100A11F049FC00E076E053EC1B2B10F033
:1042700045FE41EC1B0B1EEE100A11F03DFC53EC09
:104280001B2B10F039FA10F0D5F821E000000000E7
:1042900000003443DB0F49409A99193E9A9999BD21
:1042A0009A99993D713D0A3F994C953D0000000057
:1042B0000000004000000020AE47D13F9A9919BE8F
:1042C000000000A0F7C6B03EBD378635713D8A3E7E
:1042D00008EE900A18EE100A11F00EFC41EC1C0BCF
:1042E00018EE900A11F008FC41EC1B0B19EE900A35
:1042F00011F002FC41EC100B08F0F6FE53EC1B2B06
:1043000051EC100B10F0FAFD41EC1B0B1AEE900A69
:1043100011F0F2FB41EC1D0B19EE900A11F0ECFBD1
:1043200041EC100B08F0C8FD53EC1D2B51EC100BA9
:1043300010F0E4FD53EC1B2B11F0DCF853EC1C2BBC
:1043400010F00CFB10F076F80EEE900A2AEE2A0A16
:1043500009EE280AC0EE08DA9FED191ADFED190AF6
:10436000B5B194ED270A84ED280A28EE011A00EE73
:10437000201A84ED271AC4ED389AC4ED40EAC4ED42
:104380002BDAC4ED2FDA02B0BDEC108B06B070BD95
:1043900094ED290A84ED2A0A28EE011A00EE201A6B
:1043A00084ED291AB1EE690A84ED3C0AB1EE6E0A79
:1043B00084ED410AC4ED2CDAC4ED30DAE3E7000005
:1043C0006666663FCDCCCC3D38B44FF0000CCDF8DE
:1043D00000C090F83C20012A1BD0012280F83C202C
:1043E0000A680724092A17D90368DD680A3A02EB2C
:1043F000420204FA02F225EA0202DA600A788B68C5
:104400000A3A02EB420293400268D4682343D36025
:1044100014E038BC0220704703681D6902EB4202B9
:1044200004FA02F225EA02021A610A788B6802EBAA
:104430004202934002681469234313614A681F24AF
:10444000072A15D203685D6B521E02EB820204FA42
:1044500002F225EA02025A630A8893B20A79521ECE
:1044600002EB820293400268546B234353632CE0B7
:104470000D2A15D203681D6BD21F02EB820204FACB
:1044800002F225EA02021A630A8893B20A79D21F5D
:1044900002EB820293400268146B2343136314E01F
:1044A0000368DD6A0D3A02EB820204FA02F225EAA1
:1044B0000202DA620A8893B20A790D3A02EB8202AA
:1044C00093400268D46A2343D362184A184B0468A5
:1044D0009C4206D10C68122C03D1546844F4800429
:1044E000546004689C421CD10B68102B01D0112B26
:1044F00017D1536843F4000353600968102910D1A1
:104500000C490D4A0968B1FBF2F101EB8101490048
:104510000091009929B10099491E00910099002944
:10452000F9D180F83CC038BC00207047002301401E
:10453000002001400007002040420F000068C06CCE
:10454000704770B504460025002C03D0206C00266F
:1045500010B107E0012070BD204600F01DF8666430
:1045600084F83C60206C10F0100F04D0012584F812
:104570003C60284670BD206C20F4885040F002005A
:1045800020642046FDF72EFE6664206C20F00200B9
:1045900040F001002064EAE710B586B0044614211B
:1045A00001A8FCF71FF9174B206800221649984212
:1045B00009D1086840F480700860086800F48070D1
:1045C000009006B010BD114B9842FAD1086840F433
:1045D00080600860086800F4806000900A48143821
:1045E000016841F020010160006800F020000090A7
:1045F0001815019003200290039201A9044801F0CC
:10460000B7F9DEE7002001404438024000220140B3
:10461000001402402DE9F04104460D4620688168EF
:104620004FF0000711F4806F0CD0806810F4807F89
:1046300008D0206C40F02000206484F83C700120F9
:10464000BDE8F08101F0B2FA06462068006810F07B
:10465000020F12D1B5F1FF3F0AD025B101F0A6FA41
:10466000801BA84204D92068006810F0020F12D005
:104670002068006810F0020FECD021686FF0120083
:104680000860206C40F4007020642068816811F09C
:10469000405F09D01EE0206C40F00400206484F8E4
:1046A0003C700320BDE8F081217E99B9C16A11F404
:1046B000700F03D0806810F4806F0BD1206C20F451
:1046C00080702064206C10F4805F03D1206C40F077
:1046D000010020640020BDE8F081000081B00022CC
:1046E000009290F83C10012908D0012180F83C107C
:1046F00001688B6813F0010F03D016E0022001B0AF
:1047000070478B6843F001038B603949394B096866
:10471000B1FBF3F101EB41010091009929B100993E
:10472000491E009100990029F9D101688B6813F0A6
:10473000010F52D0036C23F0010323F4C06343F450
:10474000807303644B6813F4806F05D0036C23F40B
:10475000005343F480530364036C13F4805F04D06C
:10476000436C23F00603436400E0426480F83C207D
:10477000214A6FF022030B60516811F01F0F1F498F
:1047800007D00068884230D1816811F0405F1FD0A7
:104790002BE00068884212D0194A904204D1D1F827
:1047A000042312F01F0F0AD0A0F18042B2F591321B
:1047B0001BD1D1F8041301F01F01102915D2816813
:1047C00011F0405F11D1816841F0804181600CE0BF
:1047D000816841F08041816007E0016C41F0100187
:1047E0000164416C41F001014164002001B0704757
:1047F0000007002040420F0000230140002001403C
:104800000021014090F82020012A07D0022A05D07B
:10481000416A41F480214162012070470068426989
:10482000114341610020704770B490F82040D0F8E7
:1048300000C0DCF808C0012C08D0022C06D0416A68
:1048400041F48021416270BC012070470CF080640B
:104850000CF000652C4302D11CF0805F55D0CCF3E6
:10486000016C012404FA0CF41C608B684FF4C074D2
:104870009BB1CD6804EB0C162B434D6843EAC5038E
:104880000568AB514FF4C273066803EB0C130D6956
:10489000F550097D012909D00DE00D88CB6804EBA6
:1048A0000C1643EA45530568AB51EBE70168CD5858
:1048B00045F48075CD501179D379557941EA03617A
:1048C00093791B0443EA052319434FF4C675036823
:1048D00005EB0C1559511178D37841EA03619378AF
:1048E00052781B0443EA022211434FF4C473026856
:1048F00003EB0C13D150016804EB0C100A5842F082
:1049000001020A5070BC00207047416A41F4001156
:10491000416270BC0120704790F82020012A07D026
:10492000022A05D0416A41F480214162012070478A
:104930004248D0F8002242F00102C0F80022D0F82C
:10494000002222F47C52C0F80022D0F800224B6AE8
:1049500042EA0322C0F800220A7D012302F01F026E
:1049600003FA02F2D0F81C329343C0F81C32CB6930
:10497000D3B9D0F80C329343C0F80C32B1F80CC064
:104980004B686CF31F43D1F814C000EBCC0CCCF88F
:104990004032B1F808C00B686CF31F43D1F814C063
:1049A00000EBCC0CCCF84432CB69012B1AD1D0F8F7
:1049B0000C321343C0F80C32B1F800C04B686CF3F2
:1049C0001F43D1F814C000EBCC0CCCF84032B1F846
:1049D00008C0CB686CF31F43D1F814C000EBCC0CBB
:1049E000CCF844328B697BB1D0F804321343C0F861
:1049F00004320B6973B1D0F814321343C0F8143287
:104A0000096A01290CD010E0D0F804329343C0F8B1
:104A10000432EEE7D0F814329343C0F81432EFE7D3
:104A2000D0F81C121143C0F81C12D0F8001221F06B
:104A30000101C0F80012002070470000006400402F
:104A4000704730B490F820C0BCF1010F09D0BCF120
:104A5000020F06D0416A41F48021416230BC01203E
:104A6000704739B1D0F800C0DCF810C01CF0030F5B
:104A700033D006E0D0F800C0DCF80CC01CF0030F07
:104A800024D04FF4D87C04680CEB011C54F80C4083
:104A900004F0040494603CB3046854F80C40E40847
:104AA0005460046854F80CC00CF0020CC2F80CC03E
:104AB0004FF4DA7C04680CEB011C54F80C5005F040
:104AC0000F05082D16D30824146118E0416A41F43B
:104AD0000011416230BC01207047416A41F400116D
:104AE000416230BC01207047046854F80C40640DEA
:104AF0001460D6E754F80C4004F00F041461046805
:104B000054F80C40C4F307249461046854F80CC0B2
:104B10004FEA1C4CC2F814C04FF4DC72D0F800C04D
:104B200002EB01125CF802C083F800C0D0F800C0AC
:104B30005CF802C04FEA1C2C83F801C0D0F800C01A
:104B40005CF802C04FEA1C4C83F802C0D0F800C0E9
:104B50005CF80220120EDA704FF4DE72D0F800C05A
:104B600002EB01125CF802C083F804C0D0F800C068
:104B70005CF802C04FEA1C2C83F805C0D0F800C0D6
:104B80005CF802C04FEA1C4C83F806C0D0F800C0A5
:104B90005CF80220120EDA7139B10068016941F047
:104BA0002001016130BC002070470068C16841F0FD
:104BB0002001C160F6E72DE9F05F05460024286872
:104BC0004669D0F804908768D0F80CA0D0F810B0EF
:104BD000D0F8188016F0010F54D017F0010F17D03D
:104BE0000121816017F0020F03D0284600F092FCEB
:104BF0000EE017F0040F02D04FF4006408E017F045
:104C0000080F02D04FF4805402E0284600F081FCE7
:104C100017F4807F19D029684FF48070886017F4EA
:104C2000007F03D0284600F077FC0EE017F4806F79
:104C300002D044F4005408E017F4006F02D044F4AA
:104C4000804402E0284600F066FC17F4803F19D04B
:104C500029684FF48030886017F4003F03D028465D
:104C600000F05CFC0EE017F4802F02D044F4004406
:104C700008E017F4002F02D044F4803402E0284604
:104C800000F04BFC16F0080F07D01AF0100F04D0FC
:104C900044F4007429681020C86016F0040F4FF027
:104CA000080707D01AF0080F04D02868C760284604
:104CB00000F0D0F916F0020F07D02868C06810F095
:104CC000030F02D0284600F0C7F916F0400F07D0B6
:104CD0001BF0100F04D044F4806429681020086190
:104CE00016F0200F07D01BF0080F04D028680761CA
:104CF000284600F0D9FB16F0100F07D0286800698D
:104D000010F0030F02D0284600F0CFFB16F4003F4E
:104D100008D019F0100F05D02968102048602846E7
:104D200000F0C4FB16F4803F07D019F0080F04D040
:104D300028684760284600F0F2FB16F4004F4AD07E
:104D400019F0040F44D016F4807F04D018F0010F3E
:104D500001D044F0010416F4007F04D018F0020FD3
:104D600001D044F0020416F4806F04D018F0040F50
:104D700001D044F0040416F4006F29D018F0700F2D
:104D800026D008F07000402815D006DC102809D085
:104D900020280AD0302816D10AE050280ED06028EA
:104DA00011D10EE044F008040DE044F010040AE0D4
:104DB00044F0200407E044F0400404E044F08004A0
:104DC00001E044F480742868816921F070018161F8
:104DD000296804204860002C05D0686A2043686276
:104DE0002846FFF72DFEBDE8F09F70B50446002C65
:104DF00003D094F8200010B104E0012070BD2046DB
:104E000000F0A8F82068016841F00101016000F09D
:104E1000CDFE0546206840684FF0050610F0010FF2
:104E200011D100F0C3FE401B0A2807D9606A40F484
:104E30000030606284F82060012070BD2068406806
:104E400010F0010FEDD02068016821F0020101602F
:104E500000F0ACFE05462068406810F0020F11D04B
:104E600000F0A4FE401B0A2807D9606A40F4003015
:104E7000606284F82060012070BD2068406810F0F6
:104E8000020FEDD1207E01283FD02068016821F07B
:104E900080010160607E01283DD02068016821F01A
:104EA00040010160A07E01283BD02068016821F00C
:104EB00020010160E07E012839D02068016841F0BE
:104EC00010010160207F012837D02068016821F09F
:104ED00008010160607F012835D02068016821F059
:104EE00004010160E168A068626908432169114317
:104EF00008436168491E08432168C8610020606258
:104F0000012084F82000002070BD2068016841F075
:104F100080010160BEE72068016841F04001016046
:104F2000C0E72068016841F020010160C2E7206805
:104F3000016821F010010160C4E72068016841F0B8
:104F400008010160C6E72068016841F004010160C2
:104F5000C8E700002DE9F04186B00446142101A8FD
:104F6000FBF740FC364B374ADFF8D08018682168E1
:104F7000344C03260227401C103200254FF0090C48
:104F8000414527D11860012807D1106840F0007012
:104F90001060106800F000700090206840F0080079
:104FA0002060206800F008000090019602970395A9
:104FB0000496CDF814C001A9234800F0D9FC0022C2
:104FC0000621142001F0ACFA142001F09BFA06B07F
:104FD000BDE8F081DFF874804145F8D1116841F0F7
:104FE00080611160116801F08061009118600128F2
:104FF00007D1106840F000701060106800F0007079
:105000000090206840F002002060206800F002005C
:10501000009060200190029703950496CDF814C08B
:1050200001A90B4800F0A4FC00220621402001F059
:1050300077FA402001F066FAC9E7000000640040FA
:105040002C00002030380240000C02400068004074
:105050000004024070470000F0B52DED028B89B0CE
:10506000FE494FF480567742DFEDFD8A9FEDFD8AC1
:10507000FD4D88427BD16B4602AA0021FFF7E1FC7F
:10508000002875D10498002872D1059800286FD1A6
:105090009DF80000012805D0022803D0032801D084
:1050A000042855D1401EC0B2EF49B43101EB0014C1
:1050B00094ED010A84ED000A9DF802009DF80110AC
:1050C000F2EE090A40EA01201021BAEE090A0EF0B8
:1050D0000DF8DFEDE60A20EE201ADFEDE50A81EE9D
:1050E000200A84ED010A10EE100AE249884203DD2D
:1050F00030EE480A84ED010A94ED010ADE4910EE13
:10510000100A884203D930EE080A84ED010A9DF89E
:1051100003009DF80410000140EA11100C21F3EE89
:105120000E0ABBEE0E0A0DF0E1FF84ED020A9DF8B7
:1051300004109DF8050001F00F0140EA01200C2148
:10514000F3EE020ABBEE020A0DF0D0FF84ED030A73
:10515000029840F20222A0F2022190420DD008DC17
:10516000522857D0A0F5007001384FD105E08BE0F0
:105170004CE0012901D0022948D10298401EC2B258
:1051800002EB820105EB810035F8213003819DF8A7
:1051900001309DF8004043EA042325F821309DF8B2
:1051A00003309DF8024043EA042343809DF8053014
:1051B0009DF8044043EA042383809DF80630837100
:1051C00035F82130B0F908401B1BB34203DD0369F9
:1051D0005B1E036104E0BB4202DA03695B1C0361EE
:1051E00035F8211090ED040A00EE901AB8EEC00ACE
:1051F000F8EE600A20EE080A60EE880A00EEA80ABF
:1052000080ED030A521CD0B20BF0D4F909B0BDEC0A
:10521000028BF0BD99489DF8001000F8011C9DF824
:1052200001109DF8022041EA022100EE101AB8EEAA
:10523000400A9FED931A30EE410ADFED920A20EE0C
:10524000200ABCEEC00A10EE101A01809DF803106F
:105250009DF8042041EA022100EE101AB8EE400A3F
:1052600030EE410A20EE200ABCEEC00A10EE101A01
:1052700041809DF805109DF8062041EA02218180B9
:105280009DF807108171C1E77F498842BED16B4606
:1052900002AA0021FFF7D5FB0028B7D10498002807
:1052A000B4D105980028B1D102986F4CA0F5807058
:1052B000413804F18C04DFED750A2DD0012853D05C
:1052C000C4287AD0C628A1D1674935F9782F01F1D1
:1052D0007800A1F880209DF801109DF8003041EA87
:1052E000032129809DF803309DF8024043EA0423FE
:1052F00043809DF805309DF8044043EA04238380F1
:105300009DF8063083718A1AB2427DDD564AD2F882
:105310008820521E026197E09DF8010020709DF8E0
:1053200002009DF8031040EA012060809DF804000F
:105330009DF8051040EA0120A080E08820819DF8BA
:1053400006009DF8071040EA0120E08000EE100AF8
:10535000B8EE400A20EE080A20EE200A84ED030A87
:105360000EF060FE206151E79DF8010020759DF868
:1053700002009DF8031040EA0120E0829DF804003D
:105380009DF8051040EA01202083608BA0839DF8E2
:1053900006009DF8071040EA0120608300EE100A25
:1053A000B8EE400A20EE080A20EE200A84ED080A32
:1053B0000EF038FE606229E7FFE72B4935F9502FE0
:1053C00001F15000A1F858209DF801109DF800301F
:1053D00041EA032129809DF803309DF8024043EA09
:1053E000042343809DF805309DF8044043EA0423DC
:1053F00083809DF8063083718A1AB24205DD1A4A0D
:10540000126E521E026106E017E0BA4203DA164A33
:10541000126E521C0261144A92ED180AB8EEC00ACC
:1054200060EE080A00EE101AB8EE400A20EE080AF4
:1054300040EE280AC0ED030AE8E6BA4204DA0A4A56
:10544000D2F88820521C0261074A92ED220AB8EE77
:10545000C00A60EE080A00EE101A19E0D40E00200F
:10546000000000390000B443D02D00200000344378
:10547000DB0F494000003443000034C39202002097
:10548000000080460000803CFC0E002000008037B9
:10549000B8EE400A20EE080A40EE280AC0ED030AE2
:1054A00007200BF087F8B1E670477047704770B57A
:1054B000044694F82000012805D0606A40F40020DA
:1054C0006062012070BD022084F82000206801681D
:1054D00021F00101016000F069FB05462068406889
:1054E00010F0010F12D000F061FB401B0A2808D910
:1054F000606A40F400306062052084F820000120DA
:1055000070BD2068406810F0010FECD1002060628F
:1055100070BD70477047704770477047704770475D
:105520002DE9F0410446A66D00F040FB054694F8D5
:1055300035000027022806D08020606584F834708A
:105540000120BDE8F0812068016821F016010160AA
:105550002068416921F080014161206C08B9A06C8C
:1055600020B12068016821F008010160206801680D
:1055700021F0010101602068006810F0010F12D0D5
:1055800000F014FB401B052808D92020606503208B
:1055900084F8350084F83470BDE8F0812068006834
:1055A00010F0010FECD194F85C003F2101FA00F0FB
:1055B000B060012084F8350084F834700020BDE824
:1055C000F08190F83510022903D080214165012037
:1055D0007047052180F835100068016821F001014D
:1055E00001600020704700002DE9F84304464FF0A9
:1055F0000008CDF8008076484FF416510068B0FBE3
:10560000F1F7A56D2E6894F85C00082101FA00F00E
:10561000304211D02068026812F0040F0CD00268EA
:1056200022F00402026094F85C0001FA00F0A86025
:10563000606D40F00100606594F85C004FF0010976
:1056400009FA00F0304209D02168496911F0800F51
:1056500004D0A860606D40F00200606594F85C10B2
:1056600004208840304209D02168096811F0020FF7
:1056700004D0A860606D40F00400606594F85C1090
:1056800010208840304224D02168096811F0080FAA
:105690001FD0A8602068016811F4802F0DD0006829
:1056A00010F4002F04D0A16C99B12046884710E077
:1056B000216C71B1204688470BE0016811F4807FAE
:1056C00003D1016821F008010160216C09B1204675
:1056D000884794F85C1020208840304251D02168DF
:1056E000096811F0100F4CD0A86094F83500052817
:1056F0000DD02068016811F4802F32D0006810F4BA
:10570000002F29D0E16B59B32046884739E0206843
:10571000016821F0160101602068416921F08001D3
:105720004161206C08B9A06C20B12068016821F0AB
:105730000801016094F85C003F2101FA00F0A860C4
:1057400084F8359084F83480216D00293ED001B072
:105750002046BDE8F0430847616C09B12046884700
:105760000FE0016811F4807F07D1016821F010017A
:10577000016084F8359084F83480E16B09B12046EB
:105780008847606D002821D0606D10F0010F15D0A2
:10579000052084F835002068016821F001010160CE
:1057A0000098401C0090B84204D82068006810F0AF
:1057B000010FF5D184F8359084F83480E16C00292C
:1057C00004D001B02046BDE8F0430847BDE8F883A7
:1057D000000700202DE9F041044600F0E7F90546F6
:1057E000DCB1022084F83500002684F8346020689B
:1057F000016821F0010101602068006810F0010FCC
:1058000013D000F0D3F9401B052809D9202060658A
:10581000032084F83500BDE8F0810120BDE8F08167
:105820002068006810F0010FEBD121680868234A56
:105830001040A3686268D4F810C01A43E36843EAD2
:105840000C031A4363691A43A3691A43E3691A43B1
:10585000236A1A431043626A042A03D1236BE26A63
:105860001A43104308602068406920F00701606A0D
:1058700040EA0105012704280ED1A06A0543E06A29
:1058800050B12046FEF7AEFA30B14020606584F892
:1058900035700120BDE8F081206845612046FEF7A3
:1058A00087FA94F85C103F2202FA01F18160666584
:1058B00084F835700020BDE8F08100003F8010F0D2
:1058C00010B5234C10281AD020282AD0082836D00A
:1058D000012813D10EF092FB01280FD004F10C0126
:1058E00020690DF071FEE068002807D019494FF0DB
:1058F00080500860BFF34F8FBFF36F8F10BD09203A
:105900000AF058FE607840F001006070A07840F026
:105910000100A07020790028F0D0BDE810400BF005
:105920004DBA08200AF046FE207840F001002070B1
:1059300020790028E2D0BDE810400BF03FBA0A20E1
:105940000AF038FEE07840F00100E07010BD000081
:10595000B800002004ED00E010B504490A680242D6
:1059600002D00860FFF7ACFF10BD0000143C0140FE
:105970002DE9F84F0022DFF818A2DFF810924FF05F
:10598000010E03274FF00F08AAF1040B0EFA02FCD8
:105990000B6803EA0C0363457DD10C7904F0030422
:1059A000012C01D0022C14D18568540007FA04F6AA
:1059B000B543CE6806FA04F42C438460446824EAB4
:1059C0000C0C0C79C4F30014944044EA0C0CC0F89D
:1059D00004C0D1F804C037EA0C0C0CD0C4684FEAFC
:1059E000420C07FA0CF5AC438D6805FA0CFC4CEA46
:1059F000040CC0F80CC091F804C00CF0030CBCF10E
:105A0000020F12D14FEAD20C00EB8C04256A4FEA48
:105A1000427C4FEADC6C08FA0CF6B5430E6906FAD4
:105A20000CFC4CEA050CC4F820C004684FEA420C98
:105A300007FA0CF5AC430D7905F0030505FA0CFCEB
:105A40004CEA040CC0F800C0D1F804C01CF4403F7C
:105A50007DD0D9F800C04CF4804CC9F800C0D9F80A
:105A600000C00CF4804CCDF800C022F0030C0CF107
:105A7000804505F59835D5F808C89407240F08FA2D
:105A800004F62CEA0606A0F1804CBCF5003C64D07C
:105A9000A0F1804C00E05AE0BCF5013C60D0A0F1E0
:105AA000804CBCF5023C5ED0A0F1804CBCF5033CC0
:105AB0005CD0A0F1804CBCF5043C5AD0A0F1804CE5
:105AC000BCF5053C58D0A0F1804CBCF5063C56D046
:105AD000A0F1804CBCF5073C54D04FF0080C0CFAF8
